{
  "_format": "hh-sol-artifact-1",
  "contractName": "SnapBlocks",
  "sourceName": "contracts/SnapBlocks.sol",
  "abi": [
    {
      "inputs": [
        {
          "internalType": "address",
          "name": "user",
          "type": "address"
        },
        {
          "internalType": "string",
          "name": "url",
          "type": "string"
        }
      ],
      "name": "addFile",
      "outputs": [],
      "stateMutability": "nonpayable",
      "type": "function"
    },
    {
      "inputs": [],
      "name": "getAccessList",
      "outputs": [
        {
          "components": [
            {
              "internalType": "address",
              "name": "user",
              "type": "address"
            },
            {
              "internalType": "bool",
              "name": "access",
              "type": "bool"
            }
          ],
          "internalType": "struct SnapBlocks.Access[]",
          "name": "",
          "type": "tuple[]"
        }
      ],
      "stateMutability": "view",
      "type": "function"
    },
    {
      "inputs": [
        {
          "internalType": "address",
          "name": "user",
          "type": "address"
        }
      ],
      "name": "grantAccess",
      "outputs": [],
      "stateMutability": "nonpayable",
      "type": "function"
    },
    {
      "inputs": [
        {
          "internalType": "address",
          "name": "user",
          "type": "address"
        }
      ],
      "name": "revokeAccess",
      "outputs": [],
      "stateMutability": "nonpayable",
      "type": "function"
    },
    {
      "inputs": [
        {
          "internalType": "address",
          "name": "owner",
          "type": "address"
        }
      ],
      "name": "viewFiles",
      "outputs": [
        {
          "internalType": "string[]",
          "name": "",
          "type": "string[]"
        }
      ],
      "stateMutability": "view",
      "type": "function"
    }
  ],
  "bytecode": "0x6080604052348015600f57600080fd5b506116668061001f6000396000f3fe608060405234801561001057600080fd5b50600436106100575760003560e01c80630ae5e7391461005c57806380bd5e531461007857806385e68531146100945780638d5ddbb3146100b0578063e501287a146100ce575b600080fd5b61007660048036038101906100719190610c20565b6100fe565b005b610092600480360381019061008d9190610cb2565b6103c8565b005b6100ae60048036038101906100a99190610c20565b610546565b005b6100b8610899565b6040516100c59190610e1a565b60405180910390f35b6100e860048036038101906100e39190610c20565b6109a2565b6040516100f59190610f8e565b60405180910390f35b3373ffffffffffffffffffffffffffffffffffffffff168173ffffffffffffffffffffffffffffffffffffffff160361016c576040517f08c379a000000000000000000000000000000000000000000000000000000000815260040161016390611033565b60405180910390fd5b600160003373ffffffffffffffffffffffffffffffffffffffff1673ffffffffffffffffffffffffffffffffffffffff16815260200190815260200160002060008273ffffffffffffffffffffffffffffffffffffffff1673ffffffffffffffffffffffffffffffffffffffff16815260200190815260200160002060009054906101000a900460ff1615610236576040517f08c379a000000000000000000000000000000000000000000000000000000000815260040161022d9061109f565b60405180910390fd5b60018060003373ffffffffffffffffffffffffffffffffffffffff1673ffffffffffffffffffffffffffffffffffffffff16815260200190815260200160002060008373ffffffffffffffffffffffffffffffffffffffff1673ffffffffffffffffffffffffffffffffffffffff16815260200190815260200160002060006101000a81548160ff021916908315150217905550600260003373ffffffffffffffffffffffffffffffffffffffff1673ffffffffffffffffffffffffffffffffffffffff16815260200190815260200160002060405180604001604052808373ffffffffffffffffffffffffffffffffffffffff168152602001600115158152509080600181540180825580915050600190039060005260206000200160009091909190915060008201518160000160006101000a81548173ffffffffffffffffffffffffffffffffffffffff021916908373ffffffffffffffffffffffffffffffffffffffff16021790555060208201518160000160146101000a81548160ff021916908315150217905550505050565b8273ffffffffffffffffffffffffffffffffffffffff163373ffffffffffffffffffffffffffffffffffffffff1614806104885750600160008473ffffffffffffffffffffffffffffffffffffffff1673ffffffffffffffffffffffffffffffffffffffff16815260200190815260200160002060003373ffffffffffffffffffffffffffffffffffffffff1673ffffffffffffffffffffffffffffffffffffffff16815260200190815260200160002060009054906101000a900460ff165b6104c7576040517f08c379a00000000000000000000000000000000000000000000000000000000081526004016104be90611131565b60405180910390fd5b6000808473ffffffffffffffffffffffffffffffffffffffff1673ffffffffffffffffffffffffffffffffffffffff1681526020019081526020016000208282909180600181540180825580915050600190039060005260206000200160009091929091929091929091925091826105409291906113a1565b50505050565b3373ffffffffffffffffffffffffffffffffffffffff168173ffffffffffffffffffffffffffffffffffffffff16036105b4576040517f08c379a00000000000000000000000000000000000000000000000000000000081526004016105ab906114e3565b60405180910390fd5b600160003373ffffffffffffffffffffffffffffffffffffffff1673ffffffffffffffffffffffffffffffffffffffff16815260200190815260200160002060008273ffffffffffffffffffffffffffffffffffffffff1673ffffffffffffffffffffffffffffffffffffffff16815260200190815260200160002060009054906101000a900460ff1661067d576040517f08c379a00000000000000000000000000000000000000000000000000000000081526004016106749061154f565b60405180910390fd5b6000600160003373ffffffffffffffffffffffffffffffffffffffff1673ffffffffffffffffffffffffffffffffffffffff16815260200190815260200160002060008373ffffffffffffffffffffffffffffffffffffffff1673ffffffffffffffffffffffffffffffffffffffff16815260200190815260200160002060006101000a81548160ff02191690831515021790555060005b600260003373ffffffffffffffffffffffffffffffffffffffff1673ffffffffffffffffffffffffffffffffffffffff16815260200190815260200160002080549050811015610895578173ffffffffffffffffffffffffffffffffffffffff16600260003373ffffffffffffffffffffffffffffffffffffffff1673ffffffffffffffffffffffffffffffffffffffff16815260200190815260200160002082815481106107c7576107c661156f565b5b9060005260206000200160000160009054906101000a900473ffffffffffffffffffffffffffffffffffffffff1673ffffffffffffffffffffffffffffffffffffffff1603610888576000600260003373ffffffffffffffffffffffffffffffffffffffff1673ffffffffffffffffffffffffffffffffffffffff16815260200190815260200160002082815481106108635761086261156f565b5b9060005260206000200160000160146101000a81548160ff0219169083151502179055505b8080600101915050610715565b5050565b6060600260003373ffffffffffffffffffffffffffffffffffffffff1673ffffffffffffffffffffffffffffffffffffffff168152602001908152602001600020805480602002602001604051908101604052809291908181526020016000905b82821015610999578382906000526020600020016040518060400160405290816000820160009054906101000a900473ffffffffffffffffffffffffffffffffffffffff1673ffffffffffffffffffffffffffffffffffffffff1673ffffffffffffffffffffffffffffffffffffffff1681526020016000820160149054906101000a900460ff161515151581525050815260200190600101906108fa565b50505050905090565b60603373ffffffffffffffffffffffffffffffffffffffff168273ffffffffffffffffffffffffffffffffffffffff161480610a645750600160008373ffffffffffffffffffffffffffffffffffffffff1673ffffffffffffffffffffffffffffffffffffffff16815260200190815260200160002060003373ffffffffffffffffffffffffffffffffffffffff1673ffffffffffffffffffffffffffffffffffffffff16815260200190815260200160002060009054906101000a900460ff165b610aa3576040517f08c379a0000000000000000000000000000000000000000000000000000000008152600401610a9a90611610565b60405180910390fd5b6000808373ffffffffffffffffffffffffffffffffffffffff1673ffffffffffffffffffffffffffffffffffffffff168152602001908152602001600020805480602002602001604051908101604052809291908181526020016000905b82821015610bad578382906000526020600020018054610b20906111ba565b80601f0160208091040260200160405190810160405280929190818152602001828054610b4c906111ba565b8015610b995780601f10610b6e57610100808354040283529160200191610b99565b820191906000526020600020905b815481529060010190602001808311610b7c57829003601f168201915b505050505081526020019060010190610b01565b505050509050919050565b600080fd5b600080fd5b600073ffffffffffffffffffffffffffffffffffffffff82169050919050565b6000610bed82610bc2565b9050919050565b610bfd81610be2565b8114610c0857600080fd5b50565b600081359050610c1a81610bf4565b92915050565b600060208284031215610c3657610c35610bb8565b5b6000610c4484828501610c0b565b91505092915050565b600080fd5b600080fd5b600080fd5b60008083601f840112610c7257610c71610c4d565b5b8235905067ffffffffffffffff811115610c8f57610c8e610c52565b5b602083019150836001820283011115610cab57610caa610c57565b5b9250929050565b600080600060408486031215610ccb57610cca610bb8565b5b6000610cd986828701610c0b565b935050602084013567ffffffffffffffff811115610cfa57610cf9610bbd565b5b610d0686828701610c5c565b92509250509250925092565b600081519050919050565b600082825260208201905092915050565b6000819050602082019050919050565b610d4781610be2565b82525050565b60008115159050919050565b610d6281610d4d565b82525050565b604082016000820151610d7e6000850182610d3e565b506020820151610d916020850182610d59565b50505050565b6000610da38383610d68565b60408301905092915050565b6000602082019050919050565b6000610dc782610d12565b610dd18185610d1d565b9350610ddc83610d2e565b8060005b83811015610e0d578151610df48882610d97565b9750610dff83610daf565b925050600181019050610de0565b5085935050505092915050565b60006020820190508181036000830152610e348184610dbc565b905092915050565b600081519050919050565b600082825260208201905092915050565b6000819050602082019050919050565b600081519050919050565b600082825260208201905092915050565b60005b83811015610ea2578082015181840152602081019050610e87565b60008484015250505050565b6000601f19601f8301169050919050565b6000610eca82610e68565b610ed48185610e73565b9350610ee4818560208601610e84565b610eed81610eae565b840191505092915050565b6000610f048383610ebf565b905092915050565b6000602082019050919050565b6000610f2482610e3c565b610f2e8185610e47565b935083602082028501610f4085610e58565b8060005b85811015610f7c5784840389528151610f5d8582610ef8565b9450610f6883610f0c565b925060208a01995050600181019050610f44565b50829750879550505050505092915050565b60006020820190508181036000830152610fa88184610f19565b905092915050565b600082825260208201905092915050565b7f596f752063616e6e6f74206772616e742061636365737320746f20796f75727360008201527f656c662e00000000000000000000000000000000000000000000000000000000602082015250565b600061101d602483610fb0565b915061102882610fc1565b604082019050919050565b6000602082019050818103600083015261104c81611010565b9050919050565b7f41636365737320616c7265616479206772616e7465642e000000000000000000600082015250565b6000611089601783610fb0565b915061109482611053565b602082019050919050565b600060208201905081810360008301526110b88161107c565b9050919050565b7f596f7520646f206e6f742068617665207065726d697373696f6e20746f20616460008201527f642066696c657320666f72207468697320757365722e00000000000000000000602082015250565b600061111b603683610fb0565b9150611126826110bf565b604082019050919050565b6000602082019050818103600083015261114a8161110e565b9050919050565b600082905092915050565b7f4e487b7100000000000000000000000000000000000000000000000000000000600052604160045260246000fd5b7f4e487b7100000000000000000000000000000000000000000000000000000000600052602260045260246000fd5b600060028204905060018216806111d257607f821691505b6020821081036111e5576111e461118b565b5b50919050565b60008190508160005260206000209050919050565b60006020601f8301049050919050565b600082821b905092915050565b60006008830261124d7fffffffffffffffffffffffffffffffffffffffffffffffffffffffffffffffff82611210565b6112578683611210565b95508019841693508086168417925050509392505050565b6000819050919050565b6000819050919050565b600061129e6112996112948461126f565b611279565b61126f565b9050919050565b6000819050919050565b6112b883611283565b6112cc6112c4826112a5565b84845461121d565b825550505050565b600090565b6112e16112d4565b6112ec8184846112af565b505050565b5b81811015611310576113056000826112d9565b6001810190506112f2565b5050565b601f82111561135557611326816111eb565b61132f84611200565b8101602085101561133e578190505b61135261134a85611200565b8301826112f1565b50505b505050565b600082821c905092915050565b60006113786000198460080261135a565b1980831691505092915050565b60006113918383611367565b9150826002028217905092915050565b6113ab8383611151565b67ffffffffffffffff8111156113c4576113c361115c565b5b6113ce82546111ba565b6113d9828285611314565b6000601f83116001811461140857600084156113f6578287013590505b6114008582611385565b865550611468565b601f198416611416866111eb565b60005b8281101561143e57848901358255600182019150602085019450602081019050611419565b8683101561145b5784890135611457601f891682611367565b8355505b6001600288020188555050505b50505050505050565b7f596f752063616e6e6f74207265766f6b65206163636573732066726f6d20796f60008201527f757273656c662e00000000000000000000000000000000000000000000000000602082015250565b60006114cd602783610fb0565b91506114d882611471565b604082019050919050565b600060208201905081810360008301526114fc816114c0565b9050919050565b7f5573657220646f6573206e6f742068617665206163636573732e000000000000600082015250565b6000611539601a83610fb0565b915061154482611503565b602082019050919050565b600060208201905081810360008301526115688161152c565b9050919050565b7f4e487b7100000000000000000000000000000000000000000000000000000000600052603260045260246000fd5b7f596f7520646f206e6f742068617665207065726d697373696f6e20746f20766960008201527f65772074686573652066696c65732e0000000000000000000000000000000000602082015250565b60006115fa602f83610fb0565b91506116058261159e565b604082019050919050565b60006020820190508181036000830152611629816115ed565b905091905056fea2646970667358221220b928f2088c46ee3af42485347bd013cb9d96bf3805079866e81086bf5f1c843464736f6c634300081c0033",
  "linkReferences": {},
  "deployedLinkReferences": {}
}